:100000000C9462000C948A000C948A000C948A0070
:100010000C948A000C948A000C948A000C948A0038
:100020000C948A000C948A000C948A000C948A0028
:100030000C948A000C948A000C948A000C948A0018
:100040000C9416050C948A000C94E4040C94BE04E1
:100050000C948A000C948A000C948A000C948A00F8
:100060000C948A000C948A000000000024002700F1
:100070002A0000000000250028002B0000000000DE
:1000800023002600290004040404040404040202DA
:100090000202020203030303030301020408102007
:1000A0004080010204081020010204081020000012
:1000B0000008000201000003040700000000000027
:1000C0000000600511241FBECFEFD8E0DEBFCDBF1A
:1000D00011E0A0E0B1E0EAE6FEE002C005900D927A
:1000E000AC39B107D9F722E0ACE9B1E001C01D920B
:1000F000AC35B207E1F710E0C2E6D0E004C02197CA
:10010000FE010E942D07C136D107C9F70E94AA053A
:100110000C9433070C940000AF92BF92CF92DF9201
:10012000EF92FF920F931F93CF93DF936C017B01AC
:100130008B01040F151FEB015E01AE18BF08C0173D
:10014000D10759F06991D601ED91FC910190F081B0
:10015000E02DC6010995892B79F7C501DF91CF9173
:100160001F910F91FF90EF90DF90CF90BF90AF90D5
:100170000895FC01538D448D252F30E0842F90E0AD
:10018000821B930B541710F0CF9608950197089592
:10019000FC01918D828D981761F0A28DAE0FBF2F5B
:1001A000B11D5D968C91928D9F5F9F73928F90E0B1
:1001B00008958FEF9FEF0895FC01918D828D981720
:1001C00031F0828DE80FF11D858D90E008958FEF5D
:1001D0009FEF0895FC01918D228D892F90E0805C26
:1001E0009F4F821B91098F739927089587EA91E0A9
:1001F0000E94EA0021E0892B09F420E0822F089573
:1002000080E090E0892B29F00E94F60081110C9487
:1002100000000895FC01A48DA80FB92FB11DA35AA9
:10022000BF4F2C91848D90E001968F739927848F16
:10023000A689B7892C93A089B1898C918370806439
:100240008C93938D848D981306C00288F389E02DDA
:1002500080818F7D80830895EF92FF920F931F938B
:10026000CF93DF93EC0181E0888F9B8D8C8D981369
:100270001AC0E889F989808185FF15C09FB7F89475
:10028000EE89FF896083E889F989808183708064C1
:1002900080839FBF81E090E0DF91CF911F910F910C
:1002A000FF90EF900895F62E0B8D10E00F5F1F4F1B
:1002B0000F731127E02E8C8D8E110CC00FB607FC2A
:1002C000FACFE889F989808185FFF5CFCE010E94B8
:1002D0000A01F1CFEB8DEC0FFD2FF11DE35AFF4F1B
:1002E000F0829FB7F8940B8FEA89FB898081806246
:1002F000CFCFCF93DF93EC01888D8823B9F0AA8903
:10030000BB89E889F9898C9185FD03C0808186FDD0
:100310000DC00FB607FCF7CF8C9185FFF2CF80811F
:1003200085FFEDCFCE010E940A01E9CFDF91CF9189
:100330000895833081F028F4813099F08230A9F05B
:1003400008958730A9F08830C9F08430B1F48091E5
:1003500080008F7D03C0809180008F778093800024
:10036000089584B58F7784BD089584B58F7DFBCFC4
:100370008091B0008F778093B00008958091B00095
:100380008F7DF9CFCF93DF93282F30E0F901E2552D
:10039000FF4F8491F901E656FF4FD491F901EA57D6
:1003A000FF4FC491CC23A1F081110E949901EC2F41
:1003B000F0E0EE0FFF1FE458FF4FA591B491EC91D0
:1003C000ED2381E090E009F480E0DF91CF91089582
:1003D00080E090E0FACF1F93CF93DF93282F30E097
:1003E000F901E255FF4F8491F901E656FF4FD49190
:1003F000F901EA57FF4FC491CC23A9F0162F8111C0
:100400000E949901EC2FF0E0EE0FFF1FEE58FF4F16
:10041000A591B4918FB7F894EC91111108C0D095C3
:10042000DE23DC938FBFDF91CF911F910895DE2BE8
:10043000F8CFCF93DF9390E0FC01E656FF4F249175
:100440008A579F4FFC0184918823D1F090E0880F58
:10045000991FFC01E859FF4FA591B491FC01EE589A
:10046000FF4FC591D49161110EC09FB7F8948C9144
:10047000E22FE0958E238C932881E223E8839FBFAF
:10048000DF91CF9108958FB7F894EC91E22BEC9324
:100490008FBFF6CF3FB7F8948091A1019091A20150
:1004A000A091A301B091A40126B5A89B05C02F3F40
:1004B00019F00196A11DB11D3FBFBA2FA92F982F8A
:1004C0008827BC01CD01620F711D811D911D42E085
:1004D000660F771F881F991F4A95D1F708958F924D
:1004E0009F92AF92BF92CF92DF92EF92FF920E94C3
:1004F0004A024B015C0184E6C82ED12CE12CF12C80
:100500000E944A02681979098A099B09683E73406A
:1005100081059105A8F321E0C21AD108E108F1088C
:1005200088EE880E83E0981EA11CB11CC114D10472
:10053000E104F10429F7FF90EF90DF90CF90BF9096
:10054000AF909F908F900895089590E080E0089577
:10055000CF93DF93EC0160E08E810E94EB0161E0BC
:100560008E810E94EB0160E08E810E94EB018BE89E
:1005700091E00197F1F7DF91CF910895CF92DF924B
:10058000EF92FF920F931F93CF93DF936C017C0147
:1005900087E0E80EF11CD0E0C0E0062F10E0B801C3
:1005A0000C2E02C0759567950A94E2F76170F70109
:1005B00081917F010E94EB012196C430D10579F72A
:1005C000C601DF91CF911F910F91FF90EF90DF90C7
:1005D000CF900C94A802CF92DF92EF92FF920F93EC
:1005E0001F93CF93DF93EC01F62E642F8C810E9432
:1005F000EB018D818F3F19F060E00E94EB010F2D20
:1006000010E08F8584FF25C06E0187E0C80ED11CE5
:10061000F12CE12CB8010E2C02C0759567950A9457
:10062000E2F76170F60181916F010E94EB01FFEF2B
:10063000EF1AFF0A88E0E816F10461F7CE01DF91B6
:10064000CF911F910F91FF90EF90DF90CF900C947E
:10065000A802B80184E0759567958A95E1F7CE0107
:100660000E94BE026F2DCE01DF91CF911F910F919D
:10067000FF90EF90DF90CF900C94BE02CF93DF936A
:10068000813029F0909153029860909353028093A7
:1006900057021092580280E48093590280E18093BF
:1006A0005A0280E580935B0261E0809148020E94DB
:1006B0001902809149028F3F19F061E00E941902EE
:1006C00061E080914A020E941902C4E4D2E09E01D6
:1006D000245432408091530284FD0BC084E090E0AA
:1006E00021962817390744F461E08E810E9419028F
:1006F000EECF88E090E0F4CF8BE39DE00197F1F737
:1007000060E0809148020E94EB0160E080914A0223
:100710000E94EB01809149028F3F19F060E00E9436
:10072000EB016091530264FD45C063E084E492E014
:100730000E94BE02CBE4D6E4CE010197F1F763E05C
:1007400084E492E00E94BE022197F1F763E084E422
:1007500092E00E94BE0283E592E00197F1F762E029
:1007600084E492E00E94BE0260915302606240E025
:1007700084E492E00E94EB0284E08093540240E023
:100780006CE084E492E00E94EB0240E061E084E4EB
:1007900092E00E94EB028BE39FE10197F1F782E088
:1007A0008093550240E066E084E492E0DF91CF91CF
:1007B0000C94EB02606240E084E492E00E94EB0261
:1007C0008BE496E40197F1F760915302606240E098
:1007D00084E492E00E94EB0283E592E00197F1F756
:1007E00060915302606240E084E492E00E94EB0278
:1007F000BBCF41E00E94EB0281E090E00895FB0155
:1008000001900020E9F73197AF01461B570BDC013F
:10081000ED91FC910280F381E02D09948F929F92DB
:10082000AF92BF92EF92FF920F931F93CF93DF93FC
:10083000CDB7DEB7A1970FB6F894DEBF0FBECDBF20
:100840007C01FA01CB0119A2223008F42AE08E01C2
:100850000F5D1F4F822E912CB12CA12CBF01A50141
:1008600094010E940B07F901CA016A300CF5605D22
:10087000D8016E938D01232B242B252B79F790E043
:1008800080E0109721F0BD01C7010E94FF03A196EF
:100890000FB6F894DEBF0FBECDBFDF91CF911F9191
:1008A0000F91FF90EF90BF90AF909F908F90089521
:1008B000695CDECFCF92DF92EF92FF920F931F938E
:1008C000CF93DF93EC016A017B01E881F98101900C
:1008D000F081E02D6DE209958C0144275527BA017E
:1008E0004C195D096E097F092AE0CE010E940E04B1
:1008F000800F911FDF91CF911F910F91FF90EF908B
:10090000DF90CF900895AB01770F660B770B77FDE3
:100910000C945A042AE00C940E04CF93DF93AC019C
:10092000990F660B770B77FF10C087EA91E00E9462
:100930005A04EC0162E271E087EA91E00E94FF0351
:100940008C0F9D1FDF91CF9108952AE087EA91E0F7
:100950000E940E04EECFCF93DF93BC0187EA91E0B3
:100960000E94FF03EC0162E271E087EA91E00E94DD
:10097000FF038C0F9D1FDF91CF9108951F920F925F
:100980000FB60F9211242F933F934F935F936F9362
:100990007F938F939F93AF93BF93EF93FF9387EAD8
:1009A00091E00E940A01FF91EF91BF91AF919F9159
:1009B0008F917F916F915F914F913F912F910F9008
:1009C0000FBE0F901F9018951F920F920FB60F92A7
:1009D00011242F938F939F93EF93FF93E091B7018F
:1009E000F091B8018081E091BD01F091BE0182FDDE
:1009F0001BC090818091C0018F5F8F732091C101D6
:100A0000821741F0E091C001F0E0E955FE4F958F6B
:100A10008093C001FF91EF919F918F912F910F9043
:100A20000FBE0F901F9018958081F4CF1F920F92E8
:100A30000FB60F9211242F933F938F939F93AF93F1
:100A4000BF9380919D0190919E01A0919F01B091D3
:100A5000A00130919C0123E0230F2D3758F501961A
:100A6000A11DB11D20939C0180939D0190939E0137
:100A7000A0939F01B093A0018091A1019091A20148
:100A8000A091A301B091A4010196A11DB11D809375
:100A9000A1019093A201A093A301B093A401BF91DF
:100AA000AF919F918F913F912F910F900FBE0F901B
:100AB0001F90189526E8230F0296A11DB11DD2CFD5
:100AC000E7EAF1E01382128288EE93E0A0E0B0E062
:100AD00084839583A683B78388E091E091838083A4
:100AE00085EC90E09587848784EC90E097878687F3
:100AF00080EC90E0918B808B81EC90E0938B828BEB
:100B000082EC90E0958B848B86EC90E0978B868BC3
:100B1000118E128E138E148EE4E4F2E01382128290
:100B20008AE191E0918380838CE084838FEF8583D9
:100B30008BE0868385E0878384E0808783E08187FC
:100B400082E082871386148615861686178681E0D2
:100B50000C943E03789484B5826084BD84B5816032
:100B600084BD85B5826085BD85B5816085BD809178
:100B70006E00816080936E001092810080918100F0
:100B800082608093810080918100816080938100E8
:100B9000809180008160809380008091B1008460AA
:100BA0008093B1008091B00081608093B00080910B
:100BB0007A00846080937A0080917A0082608093CA
:100BC0007A0080917A00816080937A0080917A0027
:100BD000806880937A001092C100E091B701F09193
:100BE000B80182E08083E091B301F091B4011082FA
:100BF000E091B501F091B6018FEC80831092BF01B6
:100C0000E091BB01F091BC0186E08083E091B901E5
:100C1000F091BA01808180618083E091B901F09107
:100C2000BA01808188608083E091B901F091BA01B6
:100C3000808180688083E091B901F091BA01808160
:100C40008F7D808360E087E00E94190260E088E089
:100C50000E94190285E291E00E94AB0480E10E94AB
:100C60003E0366E471E084E492E00E94FF0380E0CA
:100C7000E82E80E0F82EC2E0D0E001E010E0DD24B4
:100C8000D39487E00E94C201892B91F080910201E8
:100C900090910301019761F480910101882341F053
:100CA0000E946F02D0930301C093020110920101D0
:100CB00088E00E94C201892BE1F1809102019091AC
:100CC00003010297B1F580910001882391F18FE42F
:100CD00091E00E94AB040E946F0210930301009305
:100CE00002018091A5019091A60101969093A60121
:100CF0008093A50162E671E087EA91E00E94FF031C
:100D00008091A5019091A6010E948D0480E10E942E
:100D10003E0362E871E084E492E00E94FF03609188
:100D2000A5017091A60184E492E00E9483041092D0
:100D3000000188E00E94C201892B91F0809102019C
:100D400090910301019761F480910001882341F0A3
:100D50000E946F02D0930301C09302011092000120
:100D600087E00E94C201892BE1F1809102019091FC
:100D700003010297B1F580910101882391F18AE87E
:100D800091E00E94AB040E946F028091A5019091B6
:100D9000A60101979093A6018093A50162E671E0F8
:100DA00087EA91E00E94FF038091A5019091A6013E
:100DB0000E948D0480E10E943E0362E871E084E4B9
:100DC00092E00E94FF036091A5017091A60184E466
:100DD00092E00E9483041093030100930201109299
:100DE000010187E00E94C201892B11F4D092010118
:100DF00088E00E94C201892B11F4D0920001E11415
:100E0000F10409F43ECF0E94F600882309F439CF9B
:100E10000E94000036CFA1E21A2EAA1BBB1BFD01C7
:100E20000DC0AA1FBB1FEE1FFF1FA217B307E407C9
:100E3000F50720F0A21BB30BE40BF50B661F771F21
:100E4000881F991F1A9469F7609570958095909501
:100E50009B01AC01BD01CF010895EE0FFF1F05906E
:0A0E6000F491E02D0994F894FFCFFF
:100E6A0001010100000000002C018C00B900790189
:100E7A00EA00C800DC0000000000F9038C00A502AB
:100E8A00A4020D0A004E6F206F6620706572736FA0
:100E9A006E7320696E736964652074686520726F69
:100EAA006F6D3A203000546F74616C3A20300045FF
:100EBA006E746572696E6720696E746F20726F6FE7
:100ECA006D004E6F206F6620706572736F6E7320AF
:100EDA00696E736964652074686520726F6F6D3A14
:100EEA002000546F74616C3A200045786974696E09
:0C0EFA00672066726F6D20726F6F6D00D4
:00000001FF
